S00D000050495276302E7372656386
S113000010C01DC062C01CC01AC019C018C017C0DF
S113001016C015C014C013C012C011C010C00FC048
S11300200EC011241FBECFEDCDBF10E0A0E6B0E09E
S113003001C01D92A536B107E1F7A1D0AEC0E0CF53
S11300401F920F920FB60F9211240F900FBE0F90B4
S11300501F901895AAE3B0E08C9188608C93E7E335
S1130060F0E080818E7F808380818D7F80838C917E
S11300708F778C938C918E7F8C930895E5E5F0E0D7
S113008080818068808380818460808391E0892F6F
S11300908A95F1F780818068808380818B7F80835B
S11300A09A95F1F78081877F808380818061808346
S11300B00895E5E5F0E08081806280830895E5E5B8
S11300C0F0E080818F7D808308951F920F920FB698
S11300D00F9211242F933F934F935F936F937F93CA
S11300E08F939F93AF93BF93EF93FF93E8DF809138
S11300F060008130E9F4CA990FC084E68A95F1F76B
S1130100EBE3F0E080818860808389EE8A95F1F7E3
S11301108081877F80830BC0EBE3F0E0808188607F
S1130120808389EE8A95F1F78081877F8083C1DFA0
S1130130FF91EF91BF91AF919F918F917F916F91BB
S11301405F914F913F912F910F900FBE0F901F9091
S11301501895E5E5F0E080818D7F80838081816062
S11301608083E2E3F0E0808184608083EBE5F0E06B
S113017080818061808380818062808308956ADFCA
S1130180E8DF78947BDF81E08093600092DFE0E633
S1110190F0E091E0892F8083FECFF894FFCF3A
S9030000FC
